{
  "contractName": "AwakeVideo",
  "abi": [
    {
      "inputs": [],
      "payable": false,
      "stateMutability": "nonpayable",
      "type": "constructor"
    },
    {
      "anonymous": false,
      "inputs": [
        {
          "indexed": false,
          "internalType": "uint256",
          "name": "id",
          "type": "uint256"
        },
        {
          "indexed": false,
          "internalType": "string",
          "name": "title",
          "type": "string"
        },
        {
          "indexed": false,
          "internalType": "address",
          "name": "author",
          "type": "address"
        }
      ],
      "name": "Uploaded",
      "type": "event"
    },
    {
      "constant": true,
      "inputs": [],
      "name": "name",
      "outputs": [
        {
          "internalType": "string",
          "name": "",
          "type": "string"
        }
      ],
      "payable": false,
      "stateMutability": "view",
      "type": "function"
    },
    {
      "constant": true,
      "inputs": [],
      "name": "owner",
      "outputs": [
        {
          "internalType": "address",
          "name": "",
          "type": "address"
        }
      ],
      "payable": false,
      "stateMutability": "view",
      "type": "function"
    },
    {
      "constant": true,
      "inputs": [],
      "name": "videoCount",
      "outputs": [
        {
          "internalType": "uint256",
          "name": "",
          "type": "uint256"
        }
      ],
      "payable": false,
      "stateMutability": "view",
      "type": "function"
    },
    {
      "constant": true,
      "inputs": [
        {
          "internalType": "uint256",
          "name": "",
          "type": "uint256"
        }
      ],
      "name": "videos",
      "outputs": [
        {
          "internalType": "uint256",
          "name": "id",
          "type": "uint256"
        },
        {
          "internalType": "string",
          "name": "title",
          "type": "string"
        },
        {
          "internalType": "address",
          "name": "author",
          "type": "address"
        }
      ],
      "payable": false,
      "stateMutability": "view",
      "type": "function"
    },
    {
      "constant": false,
      "inputs": [
        {
          "internalType": "string",
          "name": "_title",
          "type": "string"
        }
      ],
      "name": "uploadVideo",
      "outputs": [],
      "payable": false,
      "stateMutability": "nonpayable",
      "type": "function"
    }
  ],
  "bytecode": "0x60806040526040518060400160405280600a81526020017f4177616b65566964656f000000000000000000000000000000000000000000008152506000908051906020019061004f9291906100a8565b50600060025534801561006157600080fd5b5033600160006101000a81548173ffffffffffffffffffffffffffffffffffffffff021916908373ffffffffffffffffffffffffffffffffffffffff16021790555061014d565b828054600181600116156101000203166002900490600052602060002090601f016020900481019282601f106100e957805160ff1916838001178555610117565b82800160010185558215610117579182015b828111156101165782518255916020019190600101906100fb565b5b5090506101249190610128565b5090565b61014a91905b8082111561014657600081600090555060010161012e565b5090565b90565b6108368061015c6000396000f3fe608060405234801561001057600080fd5b50600436106100575760003560e01c806306fdde031461005c5780631e18f9cb146100df5780638da5cb5b1461019a578063c61b5f4c146101e4578063e6821bf514610202575b600080fd5b6100646102e3565b6040518080602001828103825283818151815260200191508051906020019080838360005b838110156100a4578082015181840152602081019050610089565b50505050905090810190601f1680156100d15780820380516001836020036101000a031916815260200191505b509250505060405180910390f35b610198600480360360208110156100f557600080fd5b810190808035906020019064010000000081111561011257600080fd5b82018360208201111561012457600080fd5b8035906020019184600183028401116401000000008311171561014657600080fd5b91908080601f016020809104026020016040519081016040528093929190818152602001838380828437600081840152601f19601f820116905080830192505050505050509192919290505050610381565b005b6101a2610626565b604051808273ffffffffffffffffffffffffffffffffffffffff1673ffffffffffffffffffffffffffffffffffffffff16815260200191505060405180910390f35b6101ec61064c565b6040518082815260200191505060405180910390f35b61022e6004803603602081101561021857600080fd5b8101908080359060200190929190505050610652565b60405180848152602001806020018373ffffffffffffffffffffffffffffffffffffffff1673ffffffffffffffffffffffffffffffffffffffff168152602001828103825284818151815260200191508051906020019080838360005b838110156102a657808201518184015260208101905061028b565b50505050905090810190601f1680156102d35780820380516001836020036101000a031916815260200191505b5094505050505060405180910390f35b60008054600181600116156101000203166002900480601f0160208091040260200160405190810160405280929190818152602001828054600181600116156101000203166002900480156103795780601f1061034e57610100808354040283529160200191610379565b820191906000526020600020905b81548152906001019060200180831161035c57829003601f168201915b505050505081565b60008151116103f8576040517f08c379a00000000000000000000000000000000000000000000000000000000081526004018080602001828103825260188152602001807f4e6f20766964656f207469746c652064657465637465642e000000000000000081525060200191505060405180910390fd5b600073ffffffffffffffffffffffffffffffffffffffff163373ffffffffffffffffffffffffffffffffffffffff16141561047e576040517f08c379a00000000000000000000000000000000000000000000000000000000081526004018080602001828103825260288152602001806107da6028913960400191505060405180910390fd5b600260008154809291906001019190505550604051806060016040528060025481526020018281526020013373ffffffffffffffffffffffffffffffffffffffff168152506003600060025481526020019081526020016000206000820151816000015560208201518160010190805190602001906104fe929190610734565b5060408201518160020160006101000a81548173ffffffffffffffffffffffffffffffffffffffff021916908373ffffffffffffffffffffffffffffffffffffffff1602179055509050507f3f445fd15da8eb21247b66aa5446890a3571791a25266ab9c9b739c53ca8e4cb600254823360405180848152602001806020018373ffffffffffffffffffffffffffffffffffffffff1673ffffffffffffffffffffffffffffffffffffffff168152602001828103825284818151815260200191508051906020019080838360005b838110156105e75780820151818401526020810190506105cc565b50505050905090810190601f1680156106145780820380516001836020036101000a031916815260200191505b5094505050505060405180910390a150565b600160009054906101000a900473ffffffffffffffffffffffffffffffffffffffff1681565b60025481565b6003602052806000526040600020600091509050806000015490806001018054600181600116156101000203166002900480601f0160208091040260200160405190810160405280929190818152602001828054600181600116156101000203166002900480156107045780601f106106d957610100808354040283529160200191610704565b820191906000526020600020905b8154815290600101906020018083116106e757829003601f168201915b5050505050908060020160009054906101000a900473ffffffffffffffffffffffffffffffffffffffff16905083565b828054600181600116156101000203166002900490600052602060002090601f016020900481019282601f1061077557805160ff19168380011785556107a3565b828001600101855582156107a3579182015b828111156107a2578251825591602001919060010190610787565b5b5090506107b091906107b4565b5090565b6107d691905b808211156107d25760008160009055506001016107ba565b5090565b9056fe4e6f206164647265737320646574656374656420666f722066756e6374696f6e2063616c6c65722ea265627a7a72315820f0d0c7ee4168e4b93a1e14b6c8a7742b09da0476ea7d549b3a6e554d28375ff364736f6c63430005100032",
  "source": "// \"SPDX-License-Identifier: UNLICENSED\"\npragma solidity >=0.4.22 <0.9.0;\n\ncontract AwakeVideo {\n    string public name = \"AwakeVideo\";\n    address public owner;\n    uint public videoCount = 0;\n\n    struct VideoModel {\n        uint id;\n        string title;\n        address author;\n    }\n\n    mapping(uint => VideoModel) public videos;\n\n    event Uploaded(\n        uint id,\n\t\tstring title,\n\t\taddress author\n    );\n\n    modifier onlyOwner() {\n        require(owner == msg.sender, \"Only the contract owner can perform this action.\");\n        _;\n    }\n\n    constructor() public {\n        owner = msg.sender;\n    }\n\n    // function shutDownContract() payable public onlyOwner () {\n    //     selfdestruct(payable(owner));\n    // }\n\n    function uploadVideo( string memory _title ) public {\n        require(bytes(_title).length > 0, \"No video title detected.\");\n        require(msg.sender != address(0), \"No address detected for function caller.\");\n\n        videoCount++;\n\n        videos[videoCount] = VideoModel( videoCount, _title, msg.sender );\n\n        emit Uploaded( videoCount, _title, msg.sender );\n    }\n\n}",
  "sourcePath": "/Users/seth/awake/alpha1/client/src/contracts/AwakeVideo.sol",
  "compiler": {
    "name": "solc",
    "version": "0.5.16+commit.9c3226ce.Emscripten.clang"
  },
  "schemaVersion": "3.4.0",
  "updatedAt": "2021-07-21T13:17:21.698Z",
  "networkType": "ethereum",
  "devdoc": {
    "methods": {}
  },
  "userdoc": {
    "methods": {}
  }
}